:020000040800F2
:10000000600200206D010008710100087301000802
:100010007501000877010008790100080000000060
:100020000000000000000000000000007B0100084C
:100030007D010008000000007F0100088101000828
:100040008301000883010008830100088301000880
:100050008301000883010008830100088301000870
:100060008301000883010008830100088301000860
:100070008301000883010008830100088301000850
:100080008301000883010008830100088301000840
:100090008301000883010008830100088301000830
:1000A0008301000883010008830100088301000820
:1000B0008301000883010008830100088301000810
:1000C0008301000883010008830100088301000800
:1000D00083010008830100088301000883010008F0
:1000E00083010008830100088301000800F002F882
:1000F00000F02CF80AA090E8000C82448344AAF196
:100100000107DA4501D100F021F8AFF2090EBAE893
:100110000F0013F0010F18BFFB1A43F0010318473B
:10012000E4020000F4020000002300240025002661
:10013000103A28BF78C1FBD8520728BF30C148BF4A
:100140000B6070471FB51FBD10B510BD00F023F93F
:100150001146FFF7F7FF00F023F800F041F903B470
:10016000FFF7F2FF03BC00F045F900000848004724
:10017000FEE7FEE7FEE7FEE7FEE7FEE7FEE7FEE757
:10018000FEE7FEE703480449024A044B70470000BB
:10019000ED000008600000206002002060000020E8
:1001A00000F0A8F82B48806940F0010029498861D7
:1001B0000846806940F01C0088614FF033302649C2
:1001C0000860091F086025494860086024490860E4
:1001D000091F086023490860091F08602249086058
:1001E000091F086021490860091F0860204948600C
:1001F00008602EE0322000F04AF80020164908314D
:1002000008601749083108601449C8601549083169
:10021000086015490831086014490831086014491C
:10022000C860322000F033F84FF0FF300A4908313F
:1002300008600B49083108600849C860094908315D
:100240000860094908310860084908310860084910
:10025000C860CFE700100240040C014000100140CC
:10026000040801400414014004180140041C01402A
:1002700000200140014605E0002001E0421CD0B210
:100280000928FBDB0A00A1F10101F5D1704710B587
:10029000044603E04FF47A70FFF7ECFF2000A4F16E
:1002A0000104F7D110BD00203449C8600861142052
:1002B000486100208861C8610846006840F001007C
:1002C0000860084640682E4908402C4948600846A6
:1002D00000682C490840294908600846006820F455
:1002E000802008600846406820F4FE004860002036
:1002F0008860704700B500230022FFF7D4FF1F4835
:10030000006840F480301D490860002201E0501C64
:10031000C2B21A480068400C01D1C82AF7DB1A485B
:10032000006840F0320018490860144840681749D6
:100330000843124948600846006840F08070086031
:10034000002201E0501CC2B20C480068400E01D1EE
:10035000C82AF7DB0948406840F0020007494860B6
:1003600007E006484068C0F38703501CC2B203F0A0
:100370000303022B01D0C82AF3DB00BD00100240AA
:100380000000FFF8FFFFF6FE0020024000241D00E1
:10039000704770477047754600F028F8AE46050074
:1003A0006946534620F00700854618B020B5FFF790
:1003B000E9FEBDE820404FF000064FF000074FF087
:1003C00000084FF0000B21F00701AC46ACE8C00973
:1003D000ACE8C009ACE8C009ACE8C0098D4670477C
:1003E0000446AFF300802046FFF7B9FE004870478F
:1003F0000000002001491820ABBEFEE726000200E5
:100400007047000014040008000000206002000093
:0404100028010008B7
:04000005080000ED02
:00000001FF
